:100000000C9434000C9451000C9451000C94510049
:100010000C9451000C9451000C9451000C9451001C
:100020000C9451000C9451000C9451000C9451000C
:100030000C9451000C9451000C9451000C945100FC
:100040000C9451000C9451000C9451000C945100EC
:100050000C9451000C9451000C9451000C945100DC
:100060000C9451000C94510011241FBECFEFD8E026
:10007000DEBFCDBF11E0A0E0B1E0E0E1F1E002C001
:1000800005900D92A030B107D9F711E0A0E0B1E0E2
:1000900001C01D92A030B107E1F70E9453000C94FB
:1000A00086000C94000080E284B980E480937C0098
:1000B00010927B0087EC80937A0090E080917A0028
:1000C00086FDFCCF209178003091790083E0283EB6
:1000D000380740F0F89483B7816083BF889583B771
:1000E0008E7F83BF992329F42855324048F02D9AFA
:1000F00003C02159314010F091E002C02D9890E0EA
:1001000080917A00806480937A00D8CFF894FFCFF2
:00000001FF
