:100000000C9434000C9451000C9451000C94510049
:100010000C9451000C9451000C9451000C9451001C
:100020000C9451000C9451000C9451000C9451000C
:100030000C9451000C9451000C9451000C945100FC
:100040000C9451000C9451000C9451000C945100EC
:100050000C9451000C9451000C9451000C945100DC
:100060000C9451000C94510011241FBECFEFD8E026
:10007000DEBFCDBF11E0A0E0B1E0ECE1F1E002C0F5
:1000800005900D92A030B107D9F711E0A0E0B1E0E2
:1000900001C01D92A030B107E1F70E9453000C94FB
:1000A0008C000C9400001092B9001092B80082E20B
:1000B0008093BA0085EC8093BC0099E48091BC00E9
:1000C00087FFFCCF8091B900887F883A11F0883B88
:1000D00019F49093BB001AC08036C1F0803871F4D7
:1000E0009091BB00913541F4F89483B7816083BF50
:1000F000889583B78E7F83BF9F5F08C0803A31F0B9
:10010000883C31F0883821F0882311F084EC01C05C
:0C01100080E98093BC00D2CFF894FFCFB0
:00000001FF
