:100000000C9434000C9451000C9451000C94510049
:100010000C9451000C9451000C9451000C9451001C
:100020000C9451000C9451000C9451000C9451000C
:100030000C9451000C9451000C9451000C945100FC
:100040000C9451000C9453000C9451000C945100EA
:100050000C9451000C9451000C9451000C945100DC
:100060000C9451000C94510011241FBECFEFD8E026
:10007000DEBFCDBF11E0A0E0B1E0ECEFF0E002C0E8
:1000800005900D92A030B107D9F711E0A0E0B1E0E2
:1000900001C01D92A030B107E1F70E946D000C94E1
:1000A0007C000C9400001F920F920FB60F92112447
:1000B0008F938EB58F5F8EBD8150813541F4F8945A
:1000C00083B7816083BF889583B78E7F83BF8F910D
:1000D0000F900FBE0F901F90189584B1837D84B947
:1000E00085B18C6285B9249A2C9881EC8CBD1DBC9D
:0C00F0008FE38EBD7894FFCFF894FFCF13
:00000001FF
