:100000000C9434000C9451000C9451000C94510049
:100010000C9451000C9451000C9451000C9451001C
:100020000C9451000C9451000C9451000C9451000C
:100030000C9451000C9451000C9451000C945100FC
:100040000C9451000C9451000C9451000C945100EC
:100050000C9451000C9451000C9451000C945100DC
:100060000C9451000C94510011241FBECFEFD8E026
:10007000DEBFCDBF11E0A0E0B1E0E0E1F1E002C001
:1000800005900D92A030B107D9F711E0A0E0B1E0E2
:1000900001C01D92A030B107E1F70E9453000C94FB
:1000A00086000C94000084B1837D84B985B18C6294
:1000B00085B9249A2C9881E58CBD1DBC84EC99E00F
:1000C0000197F1F781E48EBD0DB407FEFDCF8EB52B
:1000D000E4ECF9E03197F1F78F5F8EBD0DB407FEC8
:1000E000FDCF8EB5E4ECF9E03197F1F78F5F8EBD6F
:1000F0000DB407FEFDCFF89483B7816083BF889568
:1001000083B78E7F83BF80E090E00895F894FFCF9F
:00000001FF
