:100000000C9434000C9451000C9451000C94510049
:100010000C9451000C9451000C9451000C9451001C
:100020000C9451000C9451000C9451000C9451000C
:100030000C9451000C9451000C9451000C945100FC
:100040000C9451000C9451000C9451000C945100EC
:100050000C9451000C9451000C9451000C945100DC
:100060000C9451000C94510011241FBECFEFD8E026
:10007000DEBFCDBF11E0A0E0B1E0EEEDF0E002C0E8
:1000800005900D92A030B107D9F711E0A0E0B1E0E2
:1000900001C01D92A030B107E1F70E9453000C94FB
:1000A0006D000C94000080E284B92AE030E244E262
:1000B00054EF06C085B1832785B9CA010197F1F7CE
:1000C0002150C1F7F89483B7816083BF889583B7C7
:0E00D0008E7F83BF80E090E00895F894FFCF0C
:00000001FF
