:100000000C9434000C9451000C9451000C94510049
:100010000C9451000C9451000C9451000C9451001C
:100020000C9451000C9451000C9451000C9451000C
:100030000C9451000C9451000C9451000C945100FC
:100040000C9451000C9451000C9451000C945100EC
:100050000C9451000C9451000C9451000C945100DC
:100060000C9451000C94510011241FBECFEFD8E026
:10007000DEBFCDBF11E0A0E0B1E0EEEEF0E002C0E7
:1000800005900D92A030B107D9F711E0A0E0B1E0E2
:1000900001C01D92A030B107E1F70E9453000C94FB
:1000A00075000C9400001AB883E08BB980E284B923
:1000B00099B191704CE45DE130E201C0922F499911
:1000C00008C0F89483B7816083BF889583B78E7F1B
:1000D00083BF29B12170291791F3CA010197F1F764
:0E00E000222361F733B990E0EACFF894FFCF06
:00000001FF
