:100000000C9434000C9451000C9451000C94510049
:100010000C9451000C9451000C9451000C9451001C
:100020000C9451000C9451000C9451000C9451000C
:100030000C9451000C9451000C9451000C945100FC
:100040000C9451000C9451000C9453000C945100EA
:100050000C9451000C9451000C9451000C945100DC
:100060000C9451000C94510011241FBECFEFD8E026
:10007000DEBFCDBF11E0A0E0B1E0EAE0F1E002C0F8
:1000800005900D92A030B107D9F711E0A0E0B1E0E2
:1000900001C01D92A030B107E1F70E946F000C94DF
:1000A00083000C9400001F920F920FB60F92112440
:1000B0008F938091C600813549F4F89483B78160AD
:1000C00083BF889583B78E7F83BF03C08F5F809384
:1000D000C6008F910F900FBE0F901F90189592E061
:1000E0009AB983E08BB99093C00088E98093C100EE
:1000F00086E08093C2008CE090E09093C5008093EE
:0A010000C4007894FFCFF894FFCFFD
:00000001FF
